{
  "contractName": "Election",
  "abi": [
    {
      "inputs": [],
      "stateMutability": "nonpayable",
      "type": "constructor"
    },
    {
      "anonymous": false,
      "inputs": [
        {
          "indexed": false,
          "internalType": "uint256",
          "name": "id",
          "type": "uint256"
        },
        {
          "indexed": false,
          "internalType": "string",
          "name": "name",
          "type": "string"
        },
        {
          "indexed": false,
          "internalType": "uint256",
          "name": "votecount",
          "type": "uint256"
        }
      ],
      "name": "electionUpdate",
      "type": "event"
    },
    {
      "inputs": [],
      "name": "admin",
      "outputs": [
        {
          "internalType": "address",
          "name": "",
          "type": "address"
        }
      ],
      "stateMutability": "view",
      "type": "function",
      "constant": true
    },
    {
      "inputs": [],
      "name": "candidateCount",
      "outputs": [
        {
          "internalType": "uint256",
          "name": "",
          "type": "uint256"
        }
      ],
      "stateMutability": "view",
      "type": "function",
      "constant": true
    },
    {
      "inputs": [
        {
          "internalType": "uint256",
          "name": "",
          "type": "uint256"
        }
      ],
      "name": "candidates",
      "outputs": [
        {
          "internalType": "uint256",
          "name": "id",
          "type": "uint256"
        },
        {
          "internalType": "string",
          "name": "name",
          "type": "string"
        },
        {
          "internalType": "uint256",
          "name": "votecount",
          "type": "uint256"
        }
      ],
      "stateMutability": "view",
      "type": "function",
      "constant": true
    },
    {
      "inputs": [],
      "name": "resultStatus",
      "outputs": [
        {
          "internalType": "bool",
          "name": "",
          "type": "bool"
        }
      ],
      "stateMutability": "view",
      "type": "function",
      "constant": true
    },
    {
      "inputs": [
        {
          "internalType": "address",
          "name": "",
          "type": "address"
        }
      ],
      "name": "votingStatus",
      "outputs": [
        {
          "internalType": "bool",
          "name": "",
          "type": "bool"
        }
      ],
      "stateMutability": "view",
      "type": "function",
      "constant": true
    },
    {
      "inputs": [
        {
          "internalType": "uint256",
          "name": "_id",
          "type": "uint256"
        }
      ],
      "name": "vote",
      "outputs": [],
      "stateMutability": "nonpayable",
      "type": "function"
    },
    {
      "inputs": [],
      "name": "getvotingStatus",
      "outputs": [
        {
          "internalType": "bool",
          "name": "",
          "type": "bool"
        }
      ],
      "stateMutability": "view",
      "type": "function",
      "constant": true
    },
    {
      "inputs": [],
      "name": "declareResult",
      "outputs": [],
      "stateMutability": "nonpayable",
      "type": "function"
    }
  ],
  "bytecode": "0x60806040523480156200001157600080fd5b50336000806101000a81548173ffffffffffffffffffffffffffffffffffffffff021916908373ffffffffffffffffffffffffffffffffffffffff160217905550620000986040518060400160405280600d81526020017f446f6e616c64205472756d706800000000000000000000000000000000000000815250620000e460201b60201c565b620000de6040518060400160405280600981526020017f4a6f6520426964656e0000000000000000000000000000000000000000000000815250620000e460201b60201c565b62000306565b60016000815480929190620000f99062000253565b9190505550604051806060016040528060015481526020018281526020016000815250600360006001548152602001908152602001600020600082015181600001556020820151816001019080519060200190620001599291906200016a565b506040820151816002015590505050565b8280546200017890620002d0565b90600052602060002090601f0160209004810192826200019c5760008555620001e8565b82601f10620001b757805160ff1916838001178555620001e8565b82800160010185558215620001e8579182015b82811115620001e7578251825591602001919060010190620001ca565b5b509050620001f79190620001fb565b5090565b5b8082111562000216576000816000905550600101620001fc565b5090565b7f4e487b7100000000000000000000000000000000000000000000000000000000600052601160045260246000fd5b6000819050919050565b6000620002608262000249565b91507fffffffffffffffffffffffffffffffffffffffffffffffffffffffffffffffff8214156200029657620002956200021a565b5b600182019050919050565b7f4e487b7100000000000000000000000000000000000000000000000000000000600052602260045260246000fd5b60006002820490506001821680620002e957607f821691505b602082108114156200030057620002ff620002a1565b5b50919050565b610a3e80620003166000396000f3fe608060405234801561001057600080fd5b50600436106100885760003560e01c806343a9616f1161005b57806343a9616f146101175780638574c29614610147578063a9a981a314610151578063f851a4401461016f57610088565b80630121b93f1461008d5780631bceb5d2146100a957806322ffb4c6146100c75780633477ee2e146100e5575b600080fd5b6100a760048036038101906100a2919061056b565b61018d565b005b6100b1610358565b6040516100be91906105b3565b60405180910390f35b6100cf61036b565b6040516100dc91906105b3565b60405180910390f35b6100ff60048036038101906100fa919061056b565b6103bf565b60405161010e93929190610676565b60405180910390f35b610131600480360381019061012c9190610712565b610471565b60405161013e91906105b3565b60405180910390f35b61014f610491565b005b610159610506565b604051610166919061073f565b60405180910390f35b61017761050c565b6040516101849190610769565b60405180910390f35b600460003373ffffffffffffffffffffffffffffffffffffffff1673ffffffffffffffffffffffffffffffffffffffff16815260200190815260200160002060009054906101000a900460ff161561021a576040517f08c379a0000000000000000000000000000000000000000000000000000000008152600401610211906107d0565b60405180910390fd5b60008111801561022c57506001548111155b61026b576040517f08c379a00000000000000000000000000000000000000000000000000000000081526004016102629061083c565b60405180910390fd5b6001600460003373ffffffffffffffffffffffffffffffffffffffff1673ffffffffffffffffffffffffffffffffffffffff16815260200190815260200160002060006101000a81548160ff0219169083151502179055506003600082815260200190815260200160002060020160008154809291906102ea9061088b565b91905055507f523108b00f11d4cb164fec20a7d91695c7c58e86ff5bf8afe194d97650811b108160036000848152602001908152602001600020600101600360008581526020019081526020016000206002015460405161034d939291906109ca565b60405180910390a150565b600260009054906101000a900460ff1681565b6000600460003373ffffffffffffffffffffffffffffffffffffffff1673ffffffffffffffffffffffffffffffffffffffff16815260200190815260200160002060009054906101000a900460ff16905090565b60036020528060005260406000206000915090508060000154908060010180546103e890610903565b80601f016020809104026020016040519081016040528092919081815260200182805461041490610903565b80156104615780601f1061043657610100808354040283529160200191610461565b820191906000526020600020905b81548152906001019060200180831161044457829003601f168201915b5050505050908060020154905083565b60046020528060005260406000206000915054906101000a900460ff1681565b60008054906101000a900473ffffffffffffffffffffffffffffffffffffffff1673ffffffffffffffffffffffffffffffffffffffff163373ffffffffffffffffffffffffffffffffffffffff16146104e957600080fd5b6001600260006101000a81548160ff021916908315150217905550565b60015481565b60008054906101000a900473ffffffffffffffffffffffffffffffffffffffff1681565b600080fd5b6000819050919050565b61054881610535565b811461055357600080fd5b50565b6000813590506105658161053f565b92915050565b60006020828403121561058157610580610530565b5b600061058f84828501610556565b91505092915050565b60008115159050919050565b6105ad81610598565b82525050565b60006020820190506105c860008301846105a4565b92915050565b6105d781610535565b82525050565b600081519050919050565b600082825260208201905092915050565b60005b838110156106175780820151818401526020810190506105fc565b83811115610626576000848401525b50505050565b6000601f19601f8301169050919050565b6000610648826105dd565b61065281856105e8565b93506106628185602086016105f9565b61066b8161062c565b840191505092915050565b600060608201905061068b60008301866105ce565b818103602083015261069d818561063d565b90506106ac60408301846105ce565b949350505050565b600073ffffffffffffffffffffffffffffffffffffffff82169050919050565b60006106df826106b4565b9050919050565b6106ef816106d4565b81146106fa57600080fd5b50565b60008135905061070c816106e6565b92915050565b60006020828403121561072857610727610530565b5b6000610736848285016106fd565b91505092915050565b600060208201905061075460008301846105ce565b92915050565b610763816106d4565b82525050565b600060208201905061077e600083018461075a565b92915050565b7f596f75206861766520766f746564000000000000000000000000000000000000600082015250565b60006107ba600e836105e8565b91506107c582610784565b602082019050919050565b600060208201905081810360008301526107e9816107ad565b9050919050565b7f496420646f65736e742065786973740000000000000000000000000000000000600082015250565b6000610826600f836105e8565b9150610831826107f0565b602082019050919050565b6000602082019050818103600083015261085581610819565b9050919050565b7f4e487b7100000000000000000000000000000000000000000000000000000000600052601160045260246000fd5b600061089682610535565b91507fffffffffffffffffffffffffffffffffffffffffffffffffffffffffffffffff8214156108c9576108c861085c565b5b600182019050919050565b7f4e487b7100000000000000000000000000000000000000000000000000000000600052602260045260246000fd5b6000600282049050600182168061091b57607f821691505b6020821081141561092f5761092e6108d4565b5b50919050565b60008190508160005260206000209050919050565b6000815461095781610903565b61096181866105e8565b9450600182166000811461097c576001811461098e576109c1565b60ff19831686526020860193506109c1565b61099785610935565b60005b838110156109b95781548189015260018201915060208101905061099a565b808801955050505b50505092915050565b60006060820190506109df60008301866105ce565b81810360208301526109f1818561094a565b9050610a0060408301846105ce565b94935050505056fea264697066735822122000b3fce74842820597ad2aaf2ea0cc35f2262eef90484ae869377f9cad306a6964736f6c634300080b0033",
  "immutableReferences": {},
  "source": "//SPDX-License-Identifier: MIT\r\n\r\npragma solidity >=0.7.0 <0.9.0;\r\n\r\ncontract Election{\r\n    struct Candidate {\r\n        uint id;\r\n        string name;\r\n        uint votecount;\r\n    }\r\n\r\n    event electionUpdate (\r\n        uint id,\r\n        string name,\r\n        uint votecount\r\n    );\r\n\r\n    address public admin;\r\n    uint public candidateCount;\r\n    bool public resultStatus;\r\n\r\n    mapping(uint => Candidate) public candidates;\r\n    mapping(address => bool) public votingStatus;\r\n\r\n    constructor(){\r\n        admin = msg.sender;\r\n\r\n        addCandidate(\"Donald Trumph\");\r\n        addCandidate(\"Joe Biden\");\r\n    }\r\n\r\n    function addCandidate(string memory name) private {\r\n        candidateCount++;\r\n        candidates[candidateCount] = Candidate(candidateCount, name, 0);\r\n    }\r\n\r\n    function vote(uint _id) public{\r\n        require(!votingStatus[msg.sender], \"You have voted\");\r\n        require(_id > 0 && _id <= candidateCount, \"Id doesnt exist\");\r\n        votingStatus[msg.sender] = true;\r\n        candidates[_id].votecount++;\r\n        emit electionUpdate(_id, candidates[_id].name, candidates[_id].votecount);\r\n    } \r\n\r\n    function getvotingStatus() public view returns(bool){\r\n        return votingStatus[msg.sender];\r\n    }\r\n\r\n    function declareResult() public {\r\n        require (msg.sender == admin);\r\n        resultStatus = true;\r\n    }\r\n}",
  "sourcePath": "F:\\GitHub\\Election Dapp\\contracts\\Election.sol",
  "compiler": {
    "name": "solc",
    "version": "0.8.11+commit.d7f03943.Emscripten.clang"
  },
  "schemaVersion": "3.4.4",
  "updatedAt": "2022-01-25T06:54:12.297Z",
  "networkType": "ethereum",
  "devdoc": {
    "kind": "dev",
    "methods": {},
    "version": 1
  },
  "userdoc": {
    "kind": "user",
    "methods": {},
    "version": 1
  }
}