{
  "contractName": "Election",
  "abi": [
    {
      "inputs": [],
      "stateMutability": "nonpayable",
      "type": "constructor"
    },
    {
      "anonymous": false,
      "inputs": [
        {
          "indexed": false,
          "internalType": "uint256",
          "name": "id",
          "type": "uint256"
        },
        {
          "indexed": false,
          "internalType": "string",
          "name": "name",
          "type": "string"
        },
        {
          "indexed": false,
          "internalType": "uint256",
          "name": "votecount",
          "type": "uint256"
        }
      ],
      "name": "electionUpdate",
      "type": "event"
    },
    {
      "inputs": [],
      "name": "admin",
      "outputs": [
        {
          "internalType": "address",
          "name": "",
          "type": "address"
        }
      ],
      "stateMutability": "view",
      "type": "function",
      "constant": true
    },
    {
      "inputs": [],
      "name": "candidateCount",
      "outputs": [
        {
          "internalType": "uint256",
          "name": "",
          "type": "uint256"
        }
      ],
      "stateMutability": "view",
      "type": "function",
      "constant": true
    },
    {
      "inputs": [
        {
          "internalType": "uint256",
          "name": "",
          "type": "uint256"
        }
      ],
      "name": "candidates",
      "outputs": [
        {
          "internalType": "uint256",
          "name": "id",
          "type": "uint256"
        },
        {
          "internalType": "string",
          "name": "name",
          "type": "string"
        },
        {
          "internalType": "uint256",
          "name": "votecount",
          "type": "uint256"
        }
      ],
      "stateMutability": "view",
      "type": "function",
      "constant": true
    },
    {
      "inputs": [
        {
          "internalType": "address",
          "name": "",
          "type": "address"
        }
      ],
      "name": "votingStatus",
      "outputs": [
        {
          "internalType": "bool",
          "name": "",
          "type": "bool"
        }
      ],
      "stateMutability": "view",
      "type": "function",
      "constant": true
    },
    {
      "inputs": [
        {
          "internalType": "uint256",
          "name": "_id",
          "type": "uint256"
        }
      ],
      "name": "vote",
      "outputs": [],
      "stateMutability": "nonpayable",
      "type": "function"
    }
  ],
  "bytecode": "0x60806040523480156200001157600080fd5b50336000806101000a81548173ffffffffffffffffffffffffffffffffffffffff021916908373ffffffffffffffffffffffffffffffffffffffff160217905550620000986040518060400160405280600d81526020017f446f6e616c64205472756d706800000000000000000000000000000000000000815250620000e460201b60201c565b620000de6040518060400160405280600981526020017f4a6f6520426964656e0000000000000000000000000000000000000000000000815250620000e460201b60201c565b62000306565b60016000815480929190620000f99062000253565b9190505550604051806060016040528060015481526020018281526020016000815250600260006001548152602001908152602001600020600082015181600001556020820151816001019080519060200190620001599291906200016a565b506040820151816002015590505050565b8280546200017890620002d0565b90600052602060002090601f0160209004810192826200019c5760008555620001e8565b82601f10620001b757805160ff1916838001178555620001e8565b82800160010185558215620001e8579182015b82811115620001e7578251825591602001919060010190620001ca565b5b509050620001f79190620001fb565b5090565b5b8082111562000216576000816000905550600101620001fc565b5090565b7f4e487b7100000000000000000000000000000000000000000000000000000000600052601160045260246000fd5b6000819050919050565b6000620002608262000249565b91507fffffffffffffffffffffffffffffffffffffffffffffffffffffffffffffffff8214156200029657620002956200021a565b5b600182019050919050565b7f4e487b7100000000000000000000000000000000000000000000000000000000600052602260045260246000fd5b60006002820490506001821680620002e957607f821691505b602082108114156200030057620002ff620002a1565b5b50919050565b6108eb80620003166000396000f3fe608060405234801561001057600080fd5b50600436106100575760003560e01c80630121b93f1461005c5780633477ee2e1461007857806343a9616f146100aa578063a9a981a3146100da578063f851a440146100f8575b600080fd5b61007660048036038101906100719190610418565b610116565b005b610092600480360381019061008d9190610418565b6102e1565b6040516100a1939291906104ed565b60405180910390f35b6100c460048036038101906100bf9190610589565b610393565b6040516100d191906105d1565b60405180910390f35b6100e26103b3565b6040516100ef91906105ec565b60405180910390f35b6101006103b9565b60405161010d9190610616565b60405180910390f35b600360003373ffffffffffffffffffffffffffffffffffffffff1673ffffffffffffffffffffffffffffffffffffffff16815260200190815260200160002060009054906101000a900460ff16156101a3576040517f08c379a000000000000000000000000000000000000000000000000000000000815260040161019a9061067d565b60405180910390fd5b6000811180156101b557506001548111155b6101f4576040517f08c379a00000000000000000000000000000000000000000000000000000000081526004016101eb906106e9565b60405180910390fd5b60026000828152602001908152602001600020600201600081548092919061021b90610738565b91905055506001600360003373ffffffffffffffffffffffffffffffffffffffff1673ffffffffffffffffffffffffffffffffffffffff16815260200190815260200160002060006101000a81548160ff0219169083151502179055507f523108b00f11d4cb164fec20a7d91695c7c58e86ff5bf8afe194d97650811b10816002600084815260200190815260200160002060010160026000858152602001908152602001600020600201546040516102d693929190610877565b60405180910390a150565b600260205280600052604060002060009150905080600001549080600101805461030a906107b0565b80601f0160208091040260200160405190810160405280929190818152602001828054610336906107b0565b80156103835780601f1061035857610100808354040283529160200191610383565b820191906000526020600020905b81548152906001019060200180831161036657829003601f168201915b5050505050908060020154905083565b60036020528060005260406000206000915054906101000a900460ff1681565b60015481565b60008054906101000a900473ffffffffffffffffffffffffffffffffffffffff1681565b600080fd5b6000819050919050565b6103f5816103e2565b811461040057600080fd5b50565b600081359050610412816103ec565b92915050565b60006020828403121561042e5761042d6103dd565b5b600061043c84828501610403565b91505092915050565b61044e816103e2565b82525050565b600081519050919050565b600082825260208201905092915050565b60005b8381101561048e578082015181840152602081019050610473565b8381111561049d576000848401525b50505050565b6000601f19601f8301169050919050565b60006104bf82610454565b6104c9818561045f565b93506104d9818560208601610470565b6104e2816104a3565b840191505092915050565b60006060820190506105026000830186610445565b818103602083015261051481856104b4565b90506105236040830184610445565b949350505050565b600073ffffffffffffffffffffffffffffffffffffffff82169050919050565b60006105568261052b565b9050919050565b6105668161054b565b811461057157600080fd5b50565b6000813590506105838161055d565b92915050565b60006020828403121561059f5761059e6103dd565b5b60006105ad84828501610574565b91505092915050565b60008115159050919050565b6105cb816105b6565b82525050565b60006020820190506105e660008301846105c2565b92915050565b60006020820190506106016000830184610445565b92915050565b6106108161054b565b82525050565b600060208201905061062b6000830184610607565b92915050565b7f596f75206861766520766f746564000000000000000000000000000000000000600082015250565b6000610667600e8361045f565b915061067282610631565b602082019050919050565b600060208201905081810360008301526106968161065a565b9050919050565b7f496420646f65736e742065786973740000000000000000000000000000000000600082015250565b60006106d3600f8361045f565b91506106de8261069d565b602082019050919050565b60006020820190508181036000830152610702816106c6565b9050919050565b7f4e487b7100000000000000000000000000000000000000000000000000000000600052601160045260246000fd5b6000610743826103e2565b91507fffffffffffffffffffffffffffffffffffffffffffffffffffffffffffffffff82141561077657610775610709565b5b600182019050919050565b7f4e487b7100000000000000000000000000000000000000000000000000000000600052602260045260246000fd5b600060028204905060018216806107c857607f821691505b602082108114156107dc576107db610781565b5b50919050565b60008190508160005260206000209050919050565b60008154610804816107b0565b61080e818661045f565b94506001821660008114610829576001811461083b5761086e565b60ff198316865260208601935061086e565b610844856107e2565b60005b8381101561086657815481890152600182019150602081019050610847565b808801955050505b50505092915050565b600060608201905061088c6000830186610445565b818103602083015261089e81856107f7565b90506108ad6040830184610445565b94935050505056fea26469706673582212200e6f7ae16635f1e255ecd79140d0408af3eea061a48be6fdb00b9612aecc195564736f6c634300080b0033",
  "immutableReferences": {},
  "source": "//SPDX-License-Identifier: MIT\r\n\r\npragma solidity >=0.7.0 <0.9.0;\r\n\r\ncontract Election{\r\n    struct Candidate {\r\n        uint id;\r\n        string name;\r\n        uint votecount;\r\n    }\r\n\r\n    event electionUpdate (\r\n        uint id,\r\n        string name,\r\n        uint votecount\r\n    );\r\n\r\n    address public admin;\r\n    uint public candidateCount;\r\n\r\n    mapping(uint => Candidate) public candidates;\r\n    mapping(address => bool) public votingStatus;\r\n\r\n    constructor(){\r\n        admin = msg.sender;\r\n\r\n        addCandidate(\"Donald Trumph\");\r\n        addCandidate(\"Joe Biden\");\r\n    }\r\n\r\n    function addCandidate(string memory name) private {\r\n        candidateCount++;\r\n        candidates[candidateCount] = Candidate(candidateCount, name, 0);\r\n    }\r\n\r\n    function vote(uint _id) public{\r\n        require(!votingStatus[msg.sender], \"You have voted\");\r\n        require(_id > 0 && _id <= candidateCount, \"Id doesnt exist\");\r\n        candidates[_id].votecount++;\r\n        votingStatus[msg.sender] = true;\r\n        emit electionUpdate(_id, candidates[_id].name, candidates[_id].votecount);\r\n    } \r\n}",
  "sourcePath": "F:\\GitHub\\Election Dapp\\contracts\\Election.sol",
  "compiler": {
    "name": "solc",
    "version": "0.8.11+commit.d7f03943.Emscripten.clang"
  },
  "schemaVersion": "3.4.4",
  "updatedAt": "2022-01-17T06:09:32.536Z",
  "networkType": "ethereum",
  "devdoc": {
    "kind": "dev",
    "methods": {},
    "version": 1
  },
  "userdoc": {
    "kind": "user",
    "methods": {},
    "version": 1
  }
}